:020000040800F2
:100000000000012095160008E516000823150008D9
:1000100011150008171500081D1500080000000044
:10002000000000000000000000000000E5160008CD
:10003000E516000800000000E5160008D9140008C5
:10004000E5160008E5160008E5160008E5160008A4
:10005000E5160008E5160008E5160008E516000894
:10006000E516000881150008E51600086D15000862
:10007000E5160008E5160008E5160008E516000874
:10008000E5160008E5160008E51600084515000805
:1000900031150008E5160008E5160008E516000809
:1000A000E5160008E5160008E5160008E516000844
:1000B000E51600080000000000000000E51600083A
:1000C000E5160008E5160008E5160008E516000824
:1000D000E516000859150008E5160008E5160008A1
:1000E000E5160008E516000800000000000000000A
:1000F0000000000000000000000000000000000000
:1001000000000000E516000800000000E5160008E9
:100110000000000000000000E5160008911500082E
:10012000E5160008E5160008E5160008E5160008C3
:10013000E5160008000000000000000000000000BC
:10014000E5160008E5160008E516000800000000A6
:10015000E5160008E5160008E5160008E516000893
:10016000E5160008E5160008E51600080000000086
:10017000E5160008E5160008000000000000000079
:0C018000E5160008E5160008E51600086A
:1001900010B5054C237833B9044B13B10448AFF3C1
:1001A00000800123237010BD100C0020000000000F
:1001B0000825010808B5034B1BB103490348AFF3F9
:1001C000008008BD00000000140C00200825010874
:1001D000034613F8012B002AFBD1181A0138704787
:1001E00001F0FF01102A2BDB10F0070F08D010F8E8
:1001F000013B013A8B422DD010F0070F42B3F6D1EC
:10020000F0B441EA012141EA014122F007047FF004
:1002100000070023F0E80256083C85EA010586EA5B
:10022000010685FA47F5A3FA87F586FA47F6A5FA97
:1002300087F68EB9EED1F0BC01F0FF0102F00702A3
:1002400032B110F8013B013A83EA010313B1F8D14E
:100250000020704701387047002D06BF354603382F
:10026000073815F0010F07D1013015F4807F02BF68
:10027000013015F4C03F0130F0BC0138704700BFB9
:1002800081F0004102E000BF83F0004330B54FEA47
:1002900041044FEA430594EA050F08BF90EA020FB4
:1002A0001FBF54EA000C55EA020C7FEA645C7FEA47
:1002B000655C00F0E2804FEA5454D4EB5555B8BF6A
:1002C0006D420CDD2C4480EA020281EA030382EADB
:1002D000000083EA010180EA020281EA0303362D6D
:1002E00088BF30BD11F0004F4FEA01314FF4801C40
:1002F0004CEA113102D0404261EB410113F0004F52
:100300004FEA03334CEA133302D0524263EB430308
:1003100094EA050F00F0A780A4F10104D5F1200EA6
:100320000DDB02FA0EFC22FA05F2801841F1000101
:1003300003FA0EF2801843FA05F359410EE0A5F1D5
:1003400020050EF1200E012A03FA0EFC28BF4CF006
:10035000020C43FA05F3C01851EBE37101F00045BC
:1003600007D54FF0000EDCF1000C7EEB00006EEBC9
:100370000101B1F5801F1BD3B1F5001F0CD3490853
:100380005FEA30004FEA3C0C04F101044FEA4452AA
:1003900012F5800F80F09A80BCF1004F08BF5FEA31
:1003A000500C50F1000041EB045141EA050130BD11
:1003B0005FEA4C0C404141EB0101013C28BFB1F523
:1003C000801FE9D291F0000F04BF01460020B1FA6E
:1003D00081F308BF2033A3F10B03B3F120020CDA41
:1003E0000C3208DD02F1140CC2F10C0201FA0CF01F
:1003F00021FA02F10CE002F11402D8BFC2F1200C84
:1004000001FA02F120FA0CFCDCBF41EA0C01904039
:10041000E41AA2BF01EB0451294330BD6FEA040482
:100420001F3C1CDA0C340EDC04F11404C4F120026D
:1004300020FA04F001FA02F340EA030021FA04F37F
:1004400045EA030130BDC4F10C04C4F1200220FAD6
:1004500002F001FA04F340EA0300294630BD21FA14
:1004600004F0294630BD94F0000F83F4801306BFDA
:1004700081F480110134013D4EE77FEA645C18BFCE
:100480007FEA655C29D094EA050F08BF90EA020F65
:1004900005D054EA000C04BF1946104630BD91EA5D
:1004A000030F1EBF0021002030BD5FEA545C05D160
:1004B0004000494128BF41F0004130BD14F580049F
:1004C0003CBF01F5801130BD01F0004545F0FE4113
:1004D00041F470014FF0000030BD7FEA645C1ABF48
:1004E000194610467FEA655C1CBF0B46024650EA7F
:1004F000013406BF52EA033591EA030F41F40021AB
:1005000030BD00BF90F0000F04BF0021704730B530
:100510004FF4806404F132044FF000054FF0000105
:1005200050E700BF90F0000F04BF0021704730B5C6
:100530004FF4806404F1320410F0004548BF40429B
:100540004FF000013EE700BF42004FEAE2014FEAF0
:1005500031014FEA02701FBF12F07F4393F07F4FCB
:1005600081F06051704732F07F4208BF704793F0CE
:100570007F4F04BF41F40021704730B54FF46074E1
:1005800001F0004521F000411CE700BF50EA0102E4
:1005900008BF704730B54FF000050AE050EA01028D
:1005A00008BF704730B511F0004502D5404261EBFD
:1005B00041014FF4806404F132045FEA915C3FF43E
:1005C000D8AE4FF003025FEADC0C18BF03325FEADB
:1005D000DC0C18BF033202EBDC02C2F1200300FA8C
:1005E00003FC20FA02F001FA03FE40EA0E0021FAB1
:1005F00002F11444BDE600BF70B54FF0FF0C4CF49F
:10060000E06C1CEA11541DBF1CEA135594EA0C0F50
:1006100095EA0C0F00F0DEF82C4481EA030621EA8B
:100620004C5123EA4C5350EA013518BF52EA0335C6
:1006300041F4801143F4801338D0A0FB02CE4FF078
:100640000005E1FB02E506F00042E0FB03E54FF0A8
:100650000006E1FB03569CF0000F18BF4EF0010EA0
:10066000A4F1FF04B6F5007F64F5407404D25FEA9C
:100670004E0E6D4146EB060642EAC62141EA55514F
:100680004FEAC52040EA5E504FEACE2EB4F1FD0C91
:1006900088BFBCF5E06F1ED8BEF1004F08BF5FEA0F
:1006A000500E50F1000041EB045170BD06F00046C1
:1006B00046EA010140EA020081EA0301B4EB5C046E
:1006C000C2BFD4EB0C0541EA045170BD41F4801166
:1006D0004FF0000E013C00F3AB8014F1360FDEBF8B
:1006E000002001F0004170BDC4F10004203C35DA67
:1006F0000C341BDC04F11404C4F1200500FA05F3EA
:1007000020FA04F001FA05F240EA020001F000428A
:1007100021F0004110EBD37021FA04F642EB060100
:100720005EEA430E08BF20EAD37070BDC4F10C042A
:10073000C4F1200500FA04F320FA05F001FA04F2EE
:1007400040EA020001F0004110EBD37041F10001DA
:100750005EEA430E08BF20EAD37070BDC4F12005E5
:1007600000FA05F24EEA020E20FA04F301FA05F24D
:1007700043EA020321FA04F001F0004121FA04F2F5
:1007800020EA020000EBD3705EEA430E08BF20EAC5
:10079000D37070BD94F0000F0FD101F000464000FF
:1007A00041EB010111F4801F08BF013CF7D041EA81
:1007B000060195F0000F18BF704703F00046520085
:1007C00043EB030313F4801F08BF013DF7D043EA56
:1007D0000603704794EA0C0F0CEA135518BF95EA0C
:1007E0000C0F0CD050EA410618BF52EA4306D1D193
:1007F00081EA030101F000414FF0000070BD50EAB2
:10080000410606BF1046194652EA430619D094EA3B
:100810000C0F02D150EA013613D195EA0C0F05D125
:1008200052EA03361CBF104619460AD181EA030179
:1008300001F0004141F0FE4141F470014FF0000031
:1008400070BD41F0FE4141F4780170BD70B54FF0CC
:10085000FF0C4CF4E06C1CEA11541DBF1CEA13554C
:1008600094EA0C0F95EA0C0F00F0A7F8A4EB05042E
:1008700081EA030E52EA03354FEA013100F0888025
:100880004FEA03334FF0805545EA131343EA1263EE
:100890004FEA022245EA111545EA10654FEA0026A3
:1008A0000EF000419D4208BF964244F1FD0404F55C
:1008B000407402D25B084FEA3202B61A65EB0305B8
:1008C0005B084FEA32024FF480104FF4002CB6EB75
:1008D000020E75EB030E22BFB61A754640EA0C00F5
:1008E0005B084FEA3202B6EB020E75EB030E22BF35
:1008F000B61A754640EA5C005B084FEA3202B6EB76
:10090000020E75EB030E22BFB61A754640EA9C0034
:100910005B084FEA3202B6EB020E75EB030E22BF04
:10092000B61A754640EADC0055EA060E18D04FEAC2
:10093000051545EA16754FEA06164FEAC30343EA62
:1009400052734FEAC2025FEA1C1CC0D111F4801F2F
:100950000BD141EA00014FF000004FF0004CB6E728
:1009600011F4801F04BF01430020B4F1FD0C88BFC7
:10097000BCF5E06F3FF6AFAEB5EB030C04BFB6EBD2
:10098000020C5FEA500C50F1000041EB045170BDC5
:100990000EF0004E4EEA113114EB5C04C2BFD4EBF2
:1009A0000C0541EA045170BD41F480114FF0000E76
:1009B000013C90E645EA060E8DE60CEA135594EAF2
:1009C0000C0F08BF95EA0C0F3FF43BAF94EA0C0FF5
:1009D0000AD150EA01347FF434AF95EA0C0F7FF46A
:1009E00025AF104619462CE795EA0C0F06D152EABE
:1009F00003353FF4FDAE1046194622E750EA4106A2
:100A000018BF52EA43067FF4C5AE50EA41047FF4B2
:100A10000DAF52EA43057FF4EBAE12E74FF0FF3C17
:100A200006E000BF4FF0010C02E000BF4FF0010CE8
:100A30004DF804CD4FEA410C7FEA6C5C4FEA430C61
:100A400018BF7FEA6C5C1BD001B050EA410C0CBFB0
:100A500052EA430C91EA030F02BF90EA020F002012
:100A6000704710F1000F91EA030F58BF994208BF79
:100A700090422CBFD8176FEAE37040F00100704736
:100A80004FEA410C7FEA6C5C02D150EA013C07D18D
:100A90004FEA430C7FEA6C5CD6D152EA033CD3D0D8
:100AA0005DF8040B704700BF8446104662468C46D2
:100AB0001946634600E000BF01B5FFF7B7FF002805
:100AC00048BF10F1000F01BD4DF808EDFFF7F4FF2E
:100AD0000CBF012000205DF808FB00BF4DF808EDB9
:100AE000FFF7EAFF34BF012000205DF808FB00BFDC
:100AF0004DF808EDFFF7E0FF94BF012000205DF8FE
:100B000008FB00BF4DF808EDFFF7CEFF94BF0120B2
:100B100000205DF808FB00BF4DF808EDFFF7C4FFAB
:100B200034BF012000205DF808FB00BF4FEA410CF4
:100B30007FEA6C5C02D150EA013C0AD14FEA430CD7
:100B40007FEA6C5C02D152EA033C02D14FF0000014
:100B500070474FF0010070474FEA410212F5001252
:100B600015D211D56FF47873B3EB625212D94FEAF4
:100B7000C12343F0004343EA505311F0004F23FADE
:100B800002F018BF404270474FF00000704750EA33
:100B9000013005D111F0004008BF6FF000407047F0
:100BA0004FF00000704700BF53B94AB9002908BF91
:100BB00000281CBF4FF0FF314FF0FF3000F074B938
:100BC000ADF1080C6DE904CE00F006F8DDF804E0A4
:100BD000DDE9022304B070472DE9F047089D044683
:100BE0008E46002B4DD18A42944669D9B2FA82F2E0
:100BF00052B101FA02F3C2F1200120FA01F10CFA1C
:100C000002FC41EA030E94404FEA1C48210CBEFB53
:100C1000F8F61FFA8CF708FB16E341EA034306FBDC
:100C200007F199420AD91CEB030306F1FF3080F06B
:100C30001F81994240F21C81023E63445B1AA4B2B8
:100C4000B3FBF8F008FB103344EA034400FB07F75A
:100C5000A7420AD91CEB040400F1FF3380F00A819B
:100C6000A74240F207816444023840EA0640E41B90
:100C700000261DB1D4400023C5E900433146BDE83C
:100C8000F0878B4209D9002D00F0EF800026C5E9DE
:100C9000000130463146BDE8F087B3FA83F6002EF6
:100CA0004AD18B4202D3824200F2F980841A61EB6E
:100CB000030301209E46002DE0D0C5E9004EDDE78C
:100CC00002B9FFDEB2FA82F2002A40F09280A1EB74
:100CD0000C014FEA1C471FFA8CFE0126200CB1FBC9
:100CE000F7F307FB131140EA01410EFB03F08842C2
:100CF00008D91CEB010103F1FF3802D2884200F24F
:100D0000CB804346091AA4B2B1FBF7F007FB1011E0
:100D100044EA01440EFB00FEA64508D91CEB04047E
:100D200000F1FF3102D2A64500F2BB800846A4EBD9
:100D30000E0440EA03409CE7C6F12007B34022FAC4
:100D400007FC4CEA030C20FA07F401FA06F31C43F3
:100D5000F9404FEA1C4900FA06F3B1FBF9F8200C00
:100D60001FFA8CFE09FB181140EA014108FB0EF046
:100D7000884202FA06F20BD91CEB010108F1FF3A96
:100D800080F08880884240F28580A8F102086144A2
:100D9000091AA4B2B1FBF9F009FB101144EA0141B0
:100DA00000FB0EFE8E4508D91CEB010100F1FF345B
:100DB0006CD28E456AD90238614440EA0840A0FBF3
:100DC0000294A1EB0E01A142C846A64656D353D0C9
:100DD0005DB1B3EB080261EB0E0101FA07F722FAED
:100DE00006F3F1401F43C5E9007100263146BDE816
:100DF000F087C2F12003D8400CFA02FC21FA03F379
:100E0000914001434FEA1C471FFA8CFEB3FBF7F0F9
:100E100007FB10360B0C43EA064300FB0EF69E421E
:100E200004FA02F408D91CEB030300F1FF382FD2B7
:100E30009E422DD9023863449B1B89B2B3FBF7F65F
:100E400007FB163341EA034106FB0EF38B4208D938
:100E50001CEB010106F1FF3816D28B4214D9023E79
:100E60006144C91A46EA004638E72E46284605E797
:100E70000646E3E61846F8E64B45A9D2B9EB020868
:100E800064EB0C0E0138A3E74646EAE7204694E7F8
:100E90004046D1E7D0467BE7023B614432E730462B
:100EA00009E76444023842E7704700BF80B500AFED
:100EB00000F019FC0DF06AFE0DF0FEFE0DF04EFF85
:100EC0000DF074FF0DF08CFE59480DF0A3FC0DF0F1
:100ED00015FD0DF017FE0DF0C9FE0DF0CFFD0DF064
:100EE00087FF0BF073FD0CF081FF0BF03DFD0DF063
:100EF000D1FF00F0B3F80AF041FF0BF0FBFA10F05D
:100F00008FFB10F075F90FF023FE02200DF008FFA3
:100F100014200DF097FD642000F05AFC14200DF011
:100F200091FD444B1B685B6A9AB2434B1A80424B5B
:100F30001B88424AA2FB031292094FF47A7101FB0B
:100F400002F29B1A9BB2002B39D10AF049FF132001
:100F50000DF03AFD0346002B14BF01230023DAB243
:100F6000374B1A70364B1B7883F00103DBB2002B32
:100F700006D0012010F020F8324B01221A7009E04F
:100F80002F4B1B78002B05D0002010F015F82D4BAF
:100F900000221A702C4B1B780133DAB22A4B1A70DC
:100FA0002A4B1B780133DAB2284B1A70284B1B7876
:100FB0000133DAB2264B1A7032200DF043FD244B78
:100FC0001B78012B02D1224B00221A701F4B1B7879
:100FD000052B06D10BF07EF90BF0F8FA1B4B002223
:100FE0001A70194B1B780A2B10D10AF0E1FF194B2C
:100FF0001B8801339AB2174B1A80174B1B780133A9
:10100000DAB2154B1A70104B00221A70124B1B7873
:10101000052B04D10FF01CFE0F4B00221A700D4B54
:101020001B880A2B7FF47DAF0A4B00221A8078E7D9
:101030009403002020090020340C0020D34D6210BE
:1010400000000020010000202C0C00202E0C0020AD
:101050002D0C0020300C0020320C002080B584B014
:1010600000AF3B4600221A605A609A60C3F80B201A
:1010700000237B720023BB710023FB710023BB7232
:101080000023BB733B46102118460DF037FF00BF0D
:101090001037BD4680BD80B483B000AF786000BF1C
:1010A0000C37BD465DF8047B7047000080B582B008
:1010B00000AF0F4B1B6E0E4A43F0010313660C4B3F
:1010C0001B6E03F001037B607B68094B9B6D084A34
:1010D00043F080539365064B9B6D03F080533B6058
:1010E0003B68032002F06EFB00BF0837BD4680BDA1
:1010F0000010024080B485B000AF78607B681B6848
:10110000124A93420BD1124B9B6D114A43F4804318
:1011100093650F4B9B6D03F48043FB60FB687B681A
:101120001B680C4A93420BD1094B9B6D084A43F450
:1011300000439365064B9B6D03F40043BB60BB68A3
:1011400000BF1437BD465DF8047B7047003800408F
:1011500000100240003C004080B59AB000AF7860BB
:1011600007F10C035C220021184610F051FB4FF4EC
:101170000033FB604FF400737B6607F10C031846E5
:1011800004F0FEF90346002B01D000F0CDF9064B28
:10119000D3F89030044A43F40043C2F8903000BFC3
:1011A0006837BD4680BD00BF0010024080B487B0E4
:1011B00000AF78607B681B68254A93420CD1254BB1
:1011C0009B6D244A43F010039365224B9B6D03F003
:1011D00010037B617B6934E07B681B68B3F1804F4F
:1011E0000CD11C4B9B6D1B4A43F001039365194BBB
:1011F0009B6D03F001033B613B6922E07B681B6848
:10120000154A93420CD1134B9B6D124A43F02003B5
:101210009365104B9B6D03F02003FB60FB6810E0AF
:101220007B681B680D4A93420BD10A4B1B6E094A1F
:1012300043F480331366074B1B6E03F48033BB60AB
:10124000BB6800BF1C37BD465DF8047B704700BF1C
:101250000010004000100240001400400040014017
:1012600080B487B000AF78607B681B681C4A9342EB
:101270000CD11C4B1B6E1B4A43F480431366194B65
:101280001B6E03F480437B617B6922E07B681B68F3
:10129000154A93420CD1134B9B6D124A43F4003311
:1012A0009365104B9B6D03F400333B613B6910E089
:1012B0007B681B680D4A93420BD10A4B9B6D094A10
:1012C00043F480239365074B9B6D03F48023FB60FD
:1012D000FB6800BF1C37BD465DF8047B704700BF4C
:1012E0000038014000100240004400400048004027
:1012F00080B485B000AF78607B681B680A4A93426F
:101300000BD10A4B9B6D094A43F000739365074B61
:101310009B6D03F00073FB60FB6800BF1437BD4694
:101320005DF8047B704700BF00640040001002407D
:1013300080B59CB000AF786007F114035C220021F7
:10134000184610F065FA7B681B68294A93421AD147
:1013500040237B610023BB6407F11403184604F0AB
:101360000FF90346002B01D000F0DEF8214B9B6DF6
:10137000204A43F4001393651E4B9B6D03F4001346
:101380003B613B6930E07B681B681B4A93421AD182
:1013900080237B610023BB6407F11403184604F02B
:1013A000EFF80346002B01D000F0BEF8114B9B6D07
:1013B000104A43F4800393650E4B9B6D03F4800346
:1013C000FB60FB6810E07B681B680C4A93420BD102
:1013D000084B9B6D074A43F400039365054B9B6DD7
:1013E00003F40003BB60BB6800BF7037BD4680BD1F
:1013F000005400400010024000580040005C0040D3
:1014000080B485B000AF78607B681B680D4A93425A
:1014100011D10D4BDB6C0C4A43F40053D3640A4BDF
:10142000DB6C03F40053FB60FB687B68074ADA64FB
:10143000064A7B68936200BF1437BD465DF8047BA3
:10144000704700BF00000450001002404803002015
:1014500080B485B000AF78607B681B680A4A93420D
:101460000BD10A4B9B6D094A43F400639365074B0C
:101470009B6D03F40063FB60FB6800BF1437BD463F
:101480005DF8047B704700BF002C00400010024054
:1014900080B400AF0E4B1B889BB2002B06D00C4BC8
:1014A0001B889BB2013B9AB2094B1A80094B1B88DF
:1014B0009BB2002B06D0074B1B889BB2013B9AB214
:1014C000044B1A8000BFBD465DF8047B704700BF27
:1014D000380C00203A0C002080B500AF0B4B1B7875
:1014E000DBB20133DAB2094B1A70084B1B78DBB25E
:1014F000092B04D9054B00221A70FFF7C9FF00F031
:1015000047F902F0A0F900BF80BD00BF360C0020F3
:1015100080B400AFFEE780B400AFFEE780B400AF58
:10152000FEE780B400AFFEE780B400AFFEE7000046
:1015300080B500AF024801F046FE00BF80BD00BF8D
:101540006802002080B500AF024801F03CFE00BFF9
:1015500080BD00BF6802002080B500AF02480FF0D8
:10156000A7FC00BF80BD00BF880A002080B500AF87
:10157000024802F08DFA00BF80BD00BF4803002082
:1015800080B500AF01200FF017FD00BF80BD000047
:1015900080B500AF144B01221A70144B1B78002B3E
:1015A00005D0134B1B780133DAB2114B1A70114B73
:1015B0001B78002B05D0104B1B780133DAB20E4B91
:1015C0001A700E4B1B78022B07D8094B1B78042B83
:1015D00003D8094B1B78032B01D90BF0B7F9084846
:1015E00005F0A1FC00BF80BD3C0C00203F0C00209A
:1015F0003E0C0020410C0020400C00203D0C00203F
:101600006C09002080B586B000AF7860144A154B95
:10161000D31A7B617B693B61134B1B68002B02D1A2
:10162000114B124A1A60104B1A687B6813443A69CE
:101630009A4207D210F0B4F803460C221A604FF019
:10164000FF3309E0084B1B68FB60074B1A687B6897
:101650001344054A1360FB6818461837BD4680BD21
:101660000000012000040000440C0020802F002016
:1016700080B400AF064BD3F88830054A43F47003BA
:10168000C2F8883000BFBD465DF8047B704700BFDC
:1016900000ED00E0DFF834D0FFF7EAFF0C480D4919
:1016A0000D4A002302E0D458C4500433C4188C42BD
:1016B000F9D30A4A0A4C002301E013600432A24223
:1016C000FBD310F073F8FFF7F1FBFEE700000120F9
:1016D00000000020100C0020DC2C0108100C002061
:1016E0007C2F0020FEE780B582B000AF0023FB71A5
:1016F000032002F067F80F2000F00EF80346002BDD
:1017000002D00123FB7101E0FFF7D0FCFB79184602
:101710000837BD4680BD000080B584B000AF78605A
:101720000023FB73174B1B78002B23D0164B1A6832
:10173000144B1B7819464FF47A73B3FBF1F3B2FBE9
:10174000F3F3184602F073F80346002B0FD17B68C1
:101750000F2B09D8002279684FF0FF3002F03DF8D6
:101760000A4A7B68136007E00123FB7304E001234E
:10177000FB7301E00123FB73FB7B18461037BD466A
:1017800080BD00BF0C0000200400002008000020E5
:1017900080B400AF064B1B781A46064B1B681344F7
:1017A000044A136000BFBD465DF8047B704700BF6C
:1017B0000C000020480C002080B400AF034B1B68D5
:1017C0001846BD465DF8047B704700BF480C0020FA
:1017D00080B584B000AF7860FFF7EEFFB8607B683B
:1017E000FB60FB68B3F1FF3F05D00A4B1B781A463C
:1017F000FB681344FB6000BFFFF7DEFF0246BB68D7
:10180000D31AFA689A42F7D800BF00BF1037BD4616
:1018100080BD00BF0C00002080B483B000AF7860B2
:1018200039607B689B6823F47C123B681A437B68B1
:101830009A6000BF0C37BD465DF8047B704780B4EA
:1018400083B000AF786039607B689B6823F0E072FA
:101850003B681A437B689A6000BF0C37BD465DF851
:10186000047B704780B483B000AF78607B689B686E
:1018700003F0E07318460C37BD465DF8047B7047F3
:1018800080B487B000AFF860B9607A603B60FB68F5
:1018900060331A46BB689B0013447B617B691A68FE
:1018A000084B13407A6802F0F8413A680A43134340
:1018B00043F000427B691A6000BF1C37BD465DF8EB
:1018C000047B704700F0FF0380B485B000AF786000
:1018D00039607B6860331A463B689B001344FB60A9
:1018E000FB681B6803F0F84318461437BD465DF8E3
:1018F000047B704780B487B000AFF860B9607A604D
:10190000FB6860331A46BB689B0013447B617B69AC
:101910001B6823F000427B681A437B691A6000BF92
:101920001C37BD465DF8047B704780B483B000AFC0
:1019300078607B68DB6803F44063002B01D10123EE
:1019400000E0002318460C37BD465DF8047B704765
:1019500080B487B000AFF860B9607A60FB6830335C
:101960001A46BB681B0A9B0003F00C0313447B61FF
:101970007B691A68BB6803F01F031F2101FA03F398
:10198000DB431A407B689B0E03F01F01BB6803F02A
:101990001F0301FA03F31A437B691A6000BF1C3767
:1019A000BD465DF8047B704780B487B000AFF86037
:1019B000B9607A60FB6814331A46BB685B0E9B0003
:1019C00003F0040313447B617B691A68BB681B0D39
:1019D00003F01F03072101FA03F3DB431A40BB683E
:1019E0001B0D03F01F03796801FA03F31A437B69A7
:1019F0001A6000BF1C37BD465DF8047B70470000CD
:101A000080B485B000AFF860B9607A60FB68D3F845
:101A1000B020BB68C3F31203DB431A407B6803F0BA
:101A200018030849D940BB680B40C3F312031A439B
:101A3000FB68C3F8B02000BF1437BD465DF8047BD7
:101A4000704700BFFFFF070080B483B000AF78602D
:101A50007B689B6823F0204323F03F037A68936000
:101A600000BF0C37BD465DF8047B704780B483B07F
:101A700000AF78607B689B6803F00053B3F1005FB0
:101A800001D1012300E0002318460C37BD465DF864
:101A9000047B704780B483B000AF78607B689B683C
:101AA00023F0104323F03F0343F080527B689A6099
:101AB00000BF0C37BD465DF8047B704780B483B02F
:101AC00000AF78607B689B6803F08053B3F1805F60
:101AD00001D1012300E0002318460C37BD465DF814
:101AE000047B704780B483B000AF78607B689B68EC
:101AF00023F0004323F03F0343F001027B689A6028
:101B000000BF0C37BD465DF8047B704780B483B0DE
:101B100000AF78607B689B6803F00103012B01D163
:101B2000012300E0002318460C37BD465DF8047B16
:101B3000704780B483B000AF78607B689B6823F007
:101B4000004323F03F0343F004027B689A6000BF28
:101B50000C37BD465DF8047B704780B483B000AF9E
:101B600078607B689B6803F00403042B01D1012398
:101B700000E0002318460C37BD465DF8047B704733
:101B800080B483B000AF78607B689B6803F0080383
:101B9000082B01D1012300E0002318460C37BD4675
:101BA0005DF8047B7047000080B588B000AF7860B6
:101BB0000023FB770023BB607B68002B01D101234E
:101BC0002CE17B681B69002B7B685B6D002B09D1C6
:101BD0007868FFF715FC7B6800229A657B68002215
:101BE00083F850207B681B681846FFF73FFF0346C9
:101BF000002B04D07B681B681846FFF725FF7B6825
:101C00001B681846FFF75AFF0346002B15D17B6867
:101C10001B681846FFF73EFF824B1B689B09824AF0
:101C2000A2FB03239B0901335B00BB6002E0BB689E
:101C3000013BBB60BB68002BF9D17B681B68184671
:101C4000FFF73CFF0346002B0DD17B685B6D43F033
:101C500010027B685A657B689B6D43F001027B68CC
:101C60009A650123FB777B681B681846FFF775FFB1
:101C700078617B685B6D03F01003002B40F0C5803A
:101C80007B69002B40F0C1807B685B6D23F481731E
:101C900043F002027B685A657B681B681846FFF7B1
:101CA00035FF0346002B0BD16048FFF72FFF03469B
:101CB000002B05D17B685B6819465D48FFF7ACFDDA
:101CC0007B685B7E5A037B685B6B1A437B68DB68CF
:101CD0001A437B689B681A437B6893F820301B0487
:101CE0001343BB617B6893F82030012B06D17B68DE
:101CF0005B6A013B5B04BA691343BB617B689B6A07
:101D0000002B09D07B689B6A03F470727B68DB6AE6
:101D10001343BA691343BB617B681B68DA68454BA0
:101D200013407A681268B9690B43D3607B681B68FB
:101D30001846FFF712FF38617B681B681846FFF7EB
:101D40001FFFF8603B69002B3DD1FB68002B3AD1A7
:101D50007B681B7E9A037B6893F830305B001343EB
:101D6000BB617B681B68DB6823F4804323F00203BC
:101D70007A681268B9690B43D3607B6893F838308E
:101D8000012B18D17B681B681B6923F4FF6323F0C8
:101D900004037A68D16B7A68126C11437A68526CCA
:101DA00011437A68926C0A431A437B681B6842F0BD
:101DB00001021A6107E07B681B681A697B681B686F
:101DC00022F001021A617B681B69012B0CD17B6830
:101DD0001B681B6B23F00F017B68DB695A1E7B6855
:101DE0001B680A431A6307E07B681B681A6B7B68F1
:101DF0001B6822F00F021A637B685B6D23F00303FC
:101E000043F001027B685A6507E07B685B6D43F035
:101E100010027B685A650123FB77FB7F1846203749
:101E2000BD4680BD04000020632D3E050000045027
:101E30000003045007C0F0FF80B586B000AFF86023
:101E4000B9607A60FB681B681846FFF786FE034698
:101E5000002B67D1FB6893F85030012B01D102238E
:101E600063E0FB68012283F85020F86800F05CFC16
:101E70000346FB75FB7D002B4FD1FB685B6D23F4A4
:101E8000706323F0010343F48072FB685A65FB68BA
:101E90005B6D03F48053002B06D0FB689B6D23F031
:101EA0000602FB689A6502E0FB6800229A65FB68FF
:101EB000DB6C204ADA62FB68DB6C1F4A1A63FB6842
:101EC000DB6C1E4A5A63FB681B681C221A60FB68A5
:101ED000002283F85020FB681B685A68FB681B6867
:101EE00042F010025A60FB681B68DA68FB681B68E6
:101EF00042F00102DA60FB68D86CFB681B68403373
:101F00001946BA687B6801F063FD0346FB75FB6800
:101F10001B681846FFF70DFE06E0FB68002283F8F9
:101F2000502001E00223FB75FB7D18461837BD46A3
:101F300080BD00BF352800080D29000829290008A8
:101F400080B483B000AF786000BF0C37BD465DF849
:101F5000047B704780B483B000AF786000BF0C375B
:101F6000BD465DF8047B704780B5B6B000AF7860C1
:101F70003960002387F8D7300023FB607B6893F833
:101F80005030012B01D10223B9E37B68012283F891
:101F900050207B681B681846FFF7DFFD0346002BC7
:101FA00040F09E833B685B68052B24D83B685B68E8
:101FB000023B032B1BD801A252F823F0CD1F0008CF
:101FC000D51F0008DD1F0008E51F00083B680C2234
:101FD0005A6011E03B6812225A600DE03B681822FB
:101FE0005A6009E03B684FF480725A6004E03B6835
:101FF00006225A6000E000BF7B6818683B68596899
:102000003B681B681A46FFF7A3FC7B681B681846F1
:10201000FFF7A3FDC7F8D0007B681B681846FFF7E1
:10202000AFFDC7F8CC00D7F8D030002B40F0A68128
:10203000D7F8CC30002B40F0A1817B6818683B6852
:1020400019683B689B681A46FFF7AEFC3B685A6903
:102050007B681B68DB68DB0803F003035B0002FAA4
:1020600003F3C7F8C8303B681B69042B0AD07B68B0
:1020700018683B6819693B681A68D7F8C830FFF7D9
:10208000FFFB7BE17B681B6800211846FFF71CFC07
:102090000346C3F31203002B0AD17B681B6800219F
:1020A0001846FFF711FC03469B0E03F01F021EE0CB
:1020B0007B681B6800211846FFF706FC0346C7F83B
:1020C000BC30D7F8BC3093FAA3F3C7F8B830D7F8D0
:1020D000B830C7F8C030D7F8C030002B01D120236A
:1020E00004E0D7F8C030B3FA83F3DBB21A463B689A
:1020F0001B68C3F31203002B05D13B681B689B0EC2
:1021000003F01F0318E03B681B68C7F8B030D7F82E
:10211000B03093FAA3F3C7F8AC30D7F8AC30C7F8B7
:10212000B430D7F8B430002B01D1202304E0D7F825
:10213000B430B3FA83F3DBB29A4206D17B681B68F2
:10214000002200211846FFF7D5FB7B681B680121A0
:102150001846FFF7B9FB0346C3F31203002B0AD15D
:102160007B681B6801211846FFF7AEFB03469B0EF8
:1021700003F01F021EE07B681B6801211846FFF771
:10218000A3FB0346C7F8A430D7F8A43093FAA3F30F
:10219000C7F8A030D7F8A030C7F8A830D7F8A830D3
:1021A000002B01D1202304E0D7F8A830B3FA83F341
:1021B000DBB21A463B681B68C3F31203002B05D140
:1021C0003B681B689B0E03F01F0318E03B681B680D
:1021D000C7F89830D7F8983093FAA3F3C7F894303B
:1021E000D7F89430C7F89C30D7F89C30002B01D139
:1021F000202304E0D7F89C30B3FA83F3DBB29A4291
:1022000006D17B681B68002201211846FFF772FB8C
:102210007B681B6802211846FFF756FB0346C3F391
:102220001203002B0AD17B681B6802211846FFF7B6
:102230004BFB03469B0E03F01F021EE07B681B68EE
:1022400002211846FFF740FB0346C7F88C30D7F849
:102250008C3093FAA3F3C7F88830D7F88830C7F8E2
:102260009030D7F89030002B01D1202304E0D7F82C
:102270009030B3FA83F3DBB21A463B681B68C3F3B2
:102280001203002B05D13B681B689B0E03F01F0354
:1022900016E03B681B68C7F88030D7F8803093FAA7
:1022A000A3F3FB67FB6FC7F88430D7F88430002BAB
:1022B00001D1202304E0D7F88430B3FA83F3DBB2F2
:1022C0009A4206D17B681B68002202211846FFF75C
:1022D00011FB7B681B6803211846FFF7F5FA0346DC
:1022E000C3F31203002B0AD17B681B680321184635
:1022F000FFF7EAFA03469B0E03F01F0217E07B6824
:102300001B6803211846FFF7DFFA03467B677B6FE4
:1023100093FAA3F33B673B6FBB67BB6F002B01D105
:10232000202303E0BB6FB3FA83F3DBB21A463B68AA
:102330001B68C3F31203002B05D13B681B689B0E7F
:1023400003F01F0311E03B681B68BB66BB6E93FA8A
:10235000A3F37B667B6EFB66FB6E002B01D1202313
:1023600003E0FB6EB3FA83F3DBB29A4206D17B68DB
:102370001B68002203211846FFF7BCFA7B681B6824
:102380001846FFF7C3FB0346002B40F03F817B68F4
:1023900018683B6819683B68DB681A46FFF730FB32
:1023A0003B68DB688E4A934240F030817B68186856
:1023B0003B681B68C3F31203002B0BD13B681B68FF
:1023C0009B0E013303F01F03092B94BF012300234D
:1023D000DBB219E03B681B68FB65FB6D93FAA3F366
:1023E000BB65BB6D3B663B6E002B01D1202303E038
:1023F0003B6EB3FA83F3DBB2013303F01F03092B07
:1024000094BF01230023DBB2002B79D03B681B680B
:10241000C3F31203002B07D13B681B689B0E0133EB
:102420009B0603F0F84215E03B681B683B653B6D7B
:1024300093FAA3F3FB64FB6C7B657B6D002B01D1EE
:10244000202303E07B6DB3FA83F3DBB201339B06F9
:1024500003F0F8423B681B68C3F31203002B09D159
:102460003B681B689B0E013303F01F03012101FA37
:1024700003F317E03B681B687B647B6C93FAA3F360
:102480003B643B6CBB64BB6C002B01D1202303E09D
:10249000BB6CB3FA83F3DBB2013303F01F030121FA
:1024A00001FA03F342EA03013B681B68C3F312031A
:1024B000002B0AD13B681B689B0E013303F01F02FF
:1024C00013465B0013441B0518E03B681B68BB63A5
:1024D000BB6B93FAA3F37B637B6BFB63FB6B002B00
:1024E00001D1202303E0FB6BB3FA83F3DBB20133AA
:1024F00003F01F0213465B0013441B050B4380E0EF
:102500003B681B68C3F31203002B07D13B681B68B1
:102510009B0E01339B0603F0F84215E03B681B68F5
:10252000FB62FB6A93FAA3F3BB62BB6A3B633B6B40
:10253000002B01D1202303E03B6BB3FA83F3DBB222
:1025400001339B0603F0F8423B681B68C3F3120398
:10255000002B09D13B681B689B0E013303F01F035E
:10256000012101FA03F317E03B681B683B623B6AF9
:1025700093FAA3F3FB61FB697B627B6A002B01D1B9
:10258000202303E07B6AB3FA83F3DBB2013303F069
:102590001F03012101FA03F342EA03013B681B68B0
:1025A000C3F31203002B0DD13B681B689B0E013354
:1025B00003F01F0213465B0013441E3B1B0543F050
:1025C00000731DE03B681B687B617B6993FAA3F392
:1025D0003B613B69BB61BB69002B03D1202305E054
:1025E00000007F40BB69B3FA83F3DBB2013303F031
:1025F0001F0213465B0013441E3B1B0543F0007390
:102600000B433A6892681946FFF7CEF93B681A689F
:102610003D4B1340002B6CD03C48FFF723F9C7F823
:10262000C4003B681B683A4A934227D1D7F8C430AC
:1026300003F40003002B21D17B681B68354A9342C9
:1026400057D1D7F8C43043F4000319462F48FFF799
:10265000F6F8314B1B689B09304AA2FB03239B0908
:102660005A1C13465B0013449B00FB6002E0FB68AE
:10267000013BFB60FB68002BF9D13AE03B681B682B
:10268000274A934213D1D7F8C43003F08073002B4C
:102690000DD17B681B681F4A93422AD1D7F8C430FA
:1026A00043F0807319461948FFF7C9F821E03B68E9
:1026B0001B681C4A93421CD1D7F8C43003F4800332
:1026C000002B16D17B681B68124A934211D1D7F8B0
:1026D000C43043F4800319460C48FFF7B0F808E013
:1026E0007B685B6D43F020027B685A65012387F8A5
:1026F000D7307B68002283F8502097F8D7301846EF
:10270000D837BD4680BD00BF0000088000030450DC
:10271000000052C70000045004000020632D3E0555
:10272000000084CB0100008080B584B000AF7860E9
:102730000023BB607B681B681846FFF7E7F9034678
:10274000002B69D17B681B689A68364B1340002BBD
:102750000DD07B685B6D43F010027B685A657B6827
:102760009B6D43F001027B689A65012355E07B680D
:102770001B681846FFF7B6F92B48FFF773F80346B6
:1027800003F40003002B13D0284B1B689B09284A35
:10279000A2FB03239B095A1C13465B0013449B00B6
:1027A000BB6002E0BB68013BBB60BB68002BF9D19A
:1027B000FFF702F8F86028E07B681B681846FFF70F
:1027C000A5F90346002B04D17B681B681846FFF768
:1027D00089F9FEF7F1FF0246FB68D31A022B14D9E0
:1027E0007B681B681B6803F00103012B0DD07B681D
:1027F0005B6D43F010027B685A657B689B6D43F00C
:1028000001027B689A65012307E07B681B681B68EF
:1028100003F00103012BCFD1002318461037BD462A
:1028200080BD00BF3F000080000304500400002072
:10283000632D3E0580B584B000AF78607B689B6AED
:10284000FB60FB685B6D03F05003002B4BD1FB6812
:102850005B6D43F40072FB685A65FB681B681B687C
:1028600003F00803002B21D0FB681B681846FFF714
:102870005CF80346002B32D0FB681B68DB6803F46E
:102880000053002B2BD1FB685B6D23F48072FB6837
:102890005A65FB685B6D03F48053002B1FD1FB6806
:1028A0005B6D43F00102FB685A6518E0FB681B682A
:1028B000DB6803F00203002B11D1FB685B6D23F48E
:1028C0008072FB685A65FB685B6D03F48053002BD4
:1028D00005D1FB685B6D43F00102FB685A65F8683F
:1028E0000EF094FC0EE0FB685B6D03F01003002B10
:1028F00003D0F868FFF72EFB04E0FB68DB6C5B6B32
:102900007868984700BF1037BD4680BD80B584B059
:1029100000AF78607B689B6AFB60F868FFF710FB8C
:1029200000BF1037BD4680BD80B584B000AF786071
:102930007B689B6AFB60FB685B6D43F04002FB6851
:102940005A65FB689B6D43F00402FB689A65F86862
:10295000FFF700FB00BF1037BD4680BD80B584B0D7
:1029600000AF78607B68002B01D10123EDE07B682C
:1029700093F82030DBB2002B02D17868FEF7B8FC68
:102980007B681B681A687B681B6842F001021A604A
:10299000FEF712FFF86012E0FEF70EFF0246FB683A
:1029A000D31A0A2B0BD97B685B6A43F400327B682D
:1029B0005A627B68052283F820200123C5E07B68EA
:1029C0001B685B6803F00103002BE5D07B681B6884
:1029D0001A687B681B6822F002021A60FEF7ECFEA0
:1029E000F86012E0FEF7E8FE0246FB68D31A0A2BF5
:1029F0000BD97B685B6A43F400327B685A627B6860
:102A0000052283F8202001239FE07B681B685B6818
:102A100003F00203002BE5D17B681B7E012B08D15C
:102A20007B681B681A687B681B6842F080021A602A
:102A300007E07B681B681A687B681B6822F08002CD
:102A40001A607B685B7E012B08D17B681B681A6863
:102A50007B681B6842F040021A6007E07B681B68D5
:102A60001A687B681B6822F040021A607B689B7EB4
:102A7000012B08D17B681B681A687B681B6842F0D1
:102A800020021A6007E07B681B681A687B681B6875
:102A900022F020021A607B68DB7E012B08D17B6864
:102AA0001B681A687B681B6822F010021A6007E036
:102AB0007B681B681A687B681B6842F010021A600A
:102AC0007B681B7F012B08D17B681B681A687B68B9
:102AD0001B6842F008021A6007E07B681B681A68EE
:102AE0007B681B6822F008021A607B685B7F012B01
:102AF00008D17B681B681A687B681B6842F0040277
:102B00001A6007E07B681B681A687B681B6822F004
:102B100004021A607B689A687B68DB681A437B68EA
:102B20001B691A437B685B6942EA03017B685B6847
:102B30005A1E7B681B680A43DA617B6800225A626E
:102B40007B68012283F82020002318461037BD46F9
:102B500080BD80B487B000AF786039607B681B6847
:102B60007B617B6893F82030FB74FB7C012B03D0E6
:102B7000FB7C022B40F0AA807B69D3F8003243F043
:102B800001027B69C3F800223B685B6903F01F0305
:102B9000012202FA03F3FB607B69D3F81C22FB6875
:102BA000DB431A407B69C3F81C223B68DB69002BBE
:102BB00023D17B69D3F80C22FB68DB431A407B6985
:102BC000C3F80C223B68DB6819043B685B689BB266
:102BD0003A68526919437B69483243F832103B68BE
:102BE0009B6819043B681B689AB23B685B690A439F
:102BF00079694833DB000B445A603B68DB69012B81
:102C000022D17B69D3F80C22FB681A437B69C3F895
:102C10000C223B681B6819043B685B689BB23A68EE
:102C2000526919437B69483243F832103B689B680C
:102C300019043B68DB689AB23B685B690A437969AF
:102C40004833DB000B445A603B689B69002B09D179
:102C50007B69D3F80422FB68DB431A407B69C3F825
:102C6000042207E07B69D3F80422FB681A437B69DE
:102C7000C3F804223B681B69002B09D17B69D3F898
:102C80001422FB68DB431A407B69C3F8142207E077
:102C90007B69D3F81422FB681A437B69C3F81422BA
:102CA0003B681B6A012B07D17B69D3F81C22FB68A8
:102CB0001A437B69C3F81C227B69D3F8003223F0E6
:102CC00001027B69C3F80022002306E07B685B6A8F
:102CD00043F480227B685A62012318461C37BD46A4
:102CE0005DF8047B704780B584B000AF78607B6886
:102CF00093F82030DBB2012B2ED17B68022283F8BF
:102D000020207B681B681A687B681B6822F0010220
:102D10001A60FEF751FDF86012E0FEF74DFD024625
:102D2000FB68D31A0A2B0BD97B685B6A43F4003229
:102D30007B685A627B68052283F82020012312E019
:102D40007B681B685B6803F00103002BE5D17B689F
:102D500000225A62002306E07B685B6A43F400228B
:102D60007B685A62012318461037BD4680BD80B487
:102D700089B000AFF860B9607A603B60FB6893F897
:102D80002030FB77FB681B689B68BB61FB7F012BD6
:102D900003D0FB7F022B40F0AD80BB6903F0806362
:102DA000002B0AD1BB6903F00063002B05D1BB697E
:102DB00003F08053002B00F09580BB691B0E03F0DD
:102DC00003037B6101227B699A403B681A60BB6800
:102DD0009B68002B0DD1BB681B685A05BB68DB687C
:102DE000F96809681A437B6918331B010B441A60A0
:102DF0000FE0BB685B68DA00BB689B681A43BB687E
:102E0000DB68F96809681A437B6918331B010B44B6
:102E10001A60FB681968BB681A697B6918331B0163
:102E20000B4404331A60BB681B7D012B11D1FB6876
:102E30001A687B6918331B01134404331B68FA6852
:102E4000116843F480727B6918331B010B4404330F
:102E50001A607B6807331B781A067B6806331B7879
:102E60001B041A437B6805331B781B0213437A68E3
:102E7000043212781046FA68116843EA00027B694E
:102E80001B010B4403F5C6731A607B6803331B7880
:102E90001A067B6802331B781B041A437B680133D4
:102EA0001B781B0213437A6812781046FA6811687F
:102EB00043EA00027B691B010B4403F5C4731A60EB
:102EC000FB681A687B6918331B0113441B68FA6896
:102ED000116843F001027B6918331B010B441A602F
:102EE00000230EE0FB685B6A43F40012FB685A6241
:102EF000012306E0FB685B6A43F48022FB685A62A8
:102F0000012318462437BD465DF8047B704780B422
:102F100085B000AF786039600023FB607B6893F870
:102F20002030FB72FB7A012B02D0FB7A022B0BD1F3
:102F30007B681B689A683B689B061A403B689B0647
:102F40009A4201D00123FB60FB6818461437BD4646
:102F50005DF8047B704780B487B000AFF860B9605B
:102F60007A603B60FB6893F82030FB75FB7D012B9A
:102F700003D0FB7D022B40F0F380BB68002B0ED109
:102F8000FB681B68DB6803F00303002B16D1FB68AA
:102F90005B6A43F40012FB685A620123E7E0FB68B6
:102FA0001B681B6903F00303002B07D1FB685B6AF6
:102FB00043F40012FB685A620123D8E0FB681A68E8
:102FC000BB681B331B0113441B6803F004027B68BE
:102FD0009A607B689B68002B0CD1FB681A68BB6801
:102FE0001B331B0113441B685B0DC3F30A027B6890
:102FF0001A600BE0FB681A68BB681B331B011344A3
:103000001B68DB0823F060427B685A60FB681A6823
:10301000BB681B331B0113441B6803F002027B686F
:10302000DA60FB681A68BB681B331B011344043366
:103030001B6803F00F027B681A61FB681A68BB68A3
:103040001B331B01134404331B681B0ADAB27B6871
:103050009A61FB681A68BB681B331B011344043375
:103060001B681B0C9AB27B685A61FB681A68BB68C4
:103070001B01134403F5DC731B68DAB23B681A705A
:10308000FB681A68BB681B01134403F5DC731B68FB
:103090001A0A3B680133D2B21A70FB681A68BB681F
:1030A0001B01134403F5DC731B681A0C3B680233E5
:1030B000D2B21A70FB681A68BB681B01134403F58F
:1030C000DC731B681A0E3B680333D2B21A70FB68BC
:1030D0001A68BB681B01134403F5DE731A683B686A
:1030E0000433D2B21A70FB681A68BB681B01134420
:1030F00003F5DE731B681A0A3B680533D2B21A70F7
:10310000FB681A68BB681B01134403F5DE731B6878
:103110001A0C3B680633D2B21A70FB681A68BB6897
:103120001B01134403F5DE731B681A0E3B6807335B
:10313000D2B21A70BB68002B08D1FB681B68DA6832
:10314000FB681B6842F02002DA6007E0FB681B683E
:103150001A69FB681B6842F020021A61002306E02E
:10316000FB685B6A43F48022FB685A6201231846BD
:103170001C37BD465DF8047B704780B485B000AF56
:10318000786039607B6893F82030FB73FB7B012B00
:1031900002D0FB7B022B09D17B681B6859697B68D5
:1031A0001B683A680A435A61002306E07B685B6A41
:1031B00043F480227B685A62012318461437BD46C7
:1031C0005DF8047B704780B58AB000AF786000235B
:1031D0007B627B681B685B693B627B681B685B6822
:1031E000FB617B681B689B68BB617B681B68DB6855
:1031F0007B617B681B681B693B617B681B689B6903
:10320000FB603B6A03F00103002B7CD0BB6903F039
:103210000103002B23D07B681B6801229A60BB69E5
:1032200003F00203002B03D0786800F083F916E066
:10323000BB6903F00403002B04D07B6A43F40063F2
:103240007B620CE0BB6903F00803002B04D07B6AAF
:1032500043F480537B6202E0786800F089F9BB692F
:1032600003F48073002B24D07B681B684FF48072BA
:103270009A60BB6903F40073002B03D0786800F0F8
:1032800063F916E0BB6903F48063002B04D07B6A0A
:1032900043F400537B620CE0BB6903F40063002B32
:1032A00004D07B6A43F480437B6202E0786800F0DC
:1032B00069F9BB6903F48033002B24D07B681B6859
:1032C0004FF480329A60BB6903F40033002B03D0C3
:1032D000786800F043F916E0BB6903F48023002B03
:1032E00004D07B6A43F400437B620CE0BB6903F4C7
:1032F0000023002B04D07B6A43F480337B6202E01E
:10330000786800F049F93B6A03F00803002B0CD001
:103310007B6903F01003002B07D07B6A43F4007332
:103320007B627B681B681022DA603B6A03F004034F
:10333000002B0BD07B6903F00803002B06D07B68C1
:103340001B680822DA60786800F030F93B6A03F005
:103350000203002B09D07B681B68DB6803F00303C2
:10336000002B02D0786809F0BDFC3B6A03F04003F3
:10337000002B0CD03B6903F01003002B07D07B6AB5
:1033800043F480637B627B681B6810221A613B6A8E
:1033900003F02003002B0BD03B6903F00803002B44
:1033A00006D07B681B6808221A61786800F012F961
:1033B0003B6A03F01003002B09D07B681B681B6974
:1033C00003F00303002B02D0786800F0F9F83B6AA1
:1033D00003F40033002B0BD0FB6903F01003002B28
:1033E00006D07B681B6810225A60786800F0FCF8F1
:1033F0003B6A03F48033002B0BD0FB6903F0080316
:10340000002B06D07B681B6808225A60786800F0A1
:10341000F5F83B6A03F40043002B7BD0FB6903F013
:103420000403002B72D03B6A03F48073002B08D096
:10343000FB6803F00103002B03D07B6A43F0010318
:103440007B623B6A03F40073002B08D0FB6803F037
:103450000203002B03D07B6A43F002037B623B6ACA
:1034600003F48063002B08D0FB6803F00403002BF7
:1034700003D07B6A43F004037B623B6A03F400637E
:10348000002B43D0FB6803F07003002B3ED0FB6899
:1034900003F07003602B2BD0602B2ED8502B22D042
:1034A000502B2AD8402B19D0402B26D8302B10D0A7
:1034B000302B22D8102B02D0202B05D01DE07B6AA8
:1034C00043F008037B6219E07B6A43F010037B62E0
:1034D00014E07B6A43F020037B620FE07B6A43F0D9
:1034E00040037B620AE07B6A43F080037B6205E075
:1034F0007B6A43F480737B6200E000BF7B681B68DB
:103500009A697B681B6822F070029A617B681B686D
:1035100004225A607B6A002B08D07B685A6A7B6A57
:103520001A437B685A62786800F072F800BF283747
:10353000BD4680BD80B483B000AF786000BF0C375B
:10354000BD465DF8047B704780B483B000AF7860FF
:1035500000BF0C37BD465DF8047B704780B483B074
:1035600000AF786000BF0C37BD465DF8047B704744
:1035700080B483B000AF786000BF0C37BD465DF803
:10358000047B704780B483B000AF786000BF0C3715
:10359000BD465DF8047B704780B483B000AF7860AF
:1035A00000BF0C37BD465DF8047B704780B483B024
:1035B00000AF786000BF0C37BD465DF8047B7047F4
:1035C00080B483B000AF786000BF0C37BD465DF8B3
:1035D000047B704780B483B000AF786000BF0C37C5
:1035E000BD465DF8047B704780B483B000AF78605F
:1035F00000BF0C37BD465DF8047B704780B483B0D4
:1036000000AF786000BF0C37BD465DF8047B7047A3
:1036100080B483B000AF786000BF0C37BD465DF862
:10362000047B704780B485B000AF78607B6803F09E
:103630000703FB600C4BDB68BB60BA684FF6FF0307
:103640001340BB60FB681A02BB68134343F0BF63BF
:1036500043F40033BB60044ABB68D36000BF143737
:10366000BD465DF8047B704700ED00E080B400AF1C
:10367000044BDB681B0A03F007031846BD465DF8E0
:10368000047B704700ED00E080B483B000AF0346D8
:10369000FB7197F90730002B0BDBFB7903F01F025E
:1036A000074997F907305B09012000FA02F241F857
:1036B000232000BF0C37BD465DF8047B704700BF78
:1036C00000E100E080B483B000AF03463960FB71D5
:1036D00097F90730002B0ADB3B68DAB20C4997F9FF
:1036E00007301201D2B20B4483F800230AE03B6892
:1036F000DAB20849FB7903F00F03043B1201D2B29E
:103700000B441A7600BF0C37BD465DF8047B70474A
:1037100000E100E000ED00E080B489B000AFF860A7
:10372000B9607A60FB6803F00703FB61FB69C3F1D2
:103730000703042B28BF0423BB61FB690433062B5A
:1037400002D9FB69033B00E000237B614FF0FF32AD
:10375000BB6902FA03F3DA43BB681A407B699A40FB
:103760004FF0FF317B6901FA03F3D9437B680B40CB
:10377000134318462437BD465DF8047B70470000AC
:1037800080B582B000AF78607B68013BB3F1807F89
:1037900001D301230FE00A4A7B68013B53600F21EC
:1037A0004FF0FF30FFF78EFF054B00229A60044B6D
:1037B00007221A60002318460837BD4680BD00BFA7
:1037C00010E000E080B582B000AF78607868FFF765
:1037D00029FF00BF0837BD4680BD80B586B000AF69
:1037E0000346B9607A60FB7300237B61FFF73EFFFD
:1037F00078617A68B9687869FFF78EFF024697F9B1
:103800000F3011461846FFF75DFF00BF1837BD4661
:1038100080BD80B582B000AF0346FB7197F90730D9
:103820001846FFF731FF00BF0837BD4680BD80B5A1
:1038300082B000AF78607868FFF7A2FF03461846B1
:103840000837BD4680BD80B500AF00F002F800BF6C
:1038500080BD80B400AF00BFBD465DF8047B7047FB
:1038600080B485B000AF78607B68002B01D1012364
:1038700098E07B681B681A464D4B9A420FD87B68CC
:103880001B681A464B4B13444B4AA2FB03231B09EC
:103890009A007B685A647B68484A1A640EE07B6829
:1038A0001B681A46464B1344434AA2FB03231B09D9
:1038B0009A007B685A647B68424A1A647B680222D9
:1038C00083F825207B681B681B68FB60FB6823F47A
:1038D000FF4323F07003FB607B689A687B68DB68BA
:1038E0001A437B681B691A437B685B691A437B68D0
:1038F0009B691A437B68DB691A437B681B6A134325
:10390000FA681343FB607B681B68FA681A607B687F
:103910009B68B3F5804F39D07B681B6C274A934274
:103920001AD1294B1A687B685B6C03F01C030F21CA
:1039300001FA03F3DB43244913400B60224B1A685E
:103940007B6859687B685B6C03F01C0301FA03F326
:103950001D4913430B6019E01C4B1A687B685B6CB4
:1039600003F01C030F2101FA03F3DB431749134053
:103970000B60164B1A687B6859687B685B6C03F0B8
:103980001C0301FA03F3114913430B607B68002207
:10399000DA637B68012283F825207B68002283F8A4
:1039A0002420002318461437BD465DF8047B704779
:1039B00007040240F8FFFDBFCDCCCCCC0000024094
:1039C000F8FBFDBF00040240A8000240A80402402A
:1039D00080B586B000AFF860B9607A603B600023C4
:1039E000FB75FB6893F82430012B01D102234BE0D7
:1039F000FB68012283F82420FB6893F82530DBB2B2
:103A0000012B3AD1FB68022283F82520FB680022B3
:103A1000DA63FB681B681A68FB681B6822F0010206
:103A20001A603B687A68B968F86800F0E0F8FB68EB
:103A30001B6B002B08D0FB681B681A68FB681B68AF
:103A400042F00E021A600FE0FB681B681A68FB6800
:103A50001B6822F004021A60FB681B681A68FB6886
:103A60001B6842F00A021A60FB681B681A68FB6850
:103A70001B6842F001021A6005E0FB68002283F82F
:103A800024200223FB75FB7D18461837BD4680BDF8
:103A900080B584B000AF78607B681B6C1B68FB60EE
:103AA0007B681B681B68BB607B685B6C03F01C0356
:103AB00004229A40FB681340002B26D0BB6803F019
:103AC0000403002B21D07B681B681B6803F02003D4
:103AD000002B07D17B681B681A687B681B6822F083
:103AE00004021A607B685B6C03F01C027B681B6C31
:103AF000042101FA02F25A607B681B6B002B71D023
:103B00007B681B6B786898476CE07B685B6C03F0A4
:103B10001C0302229A40FB681340002B2ED0BB6886
:103B200003F00203002B29D07B681B681B6803F09D
:103B30002003002B0BD17B681B681A687B681B680D
:103B400022F00A021A607B68012283F825207B6834
:103B50005B6C03F01C027B681B6C022101FA02F211
:103B60005A607B68002283F824207B68DB6A002B84
:103B700038D07B68DB6A7868984733E07B685B6C99
:103B800003F01C0308229A40FB681340002B2AD044
:103B9000BB6803F00803002B25D07B681B681A68FC
:103BA0007B681B6822F00E021A607B685B6C03F076
:103BB0001C027B681B6C012101FA02F25A607B68CF
:103BC0000122DA637B68012283F825207B680022CA
:103BD00083F824207B685B6B002B04D07B685B6BD5
:103BE0007868984700BF00BF1037BD4680BD80B4DD
:103BF00085B000AFF860B9607A603B60FB685B6CD1
:103C000003F01C02FB681B6C012101FA02F25A60EE
:103C1000FB681B683A685A60FB689B68102B08D1E8
:103C2000FB681B687A689A60FB681B68BA68DA6090
:103C300007E0FB681B68BA689A60FB681B687A68D3
:103C4000DA6000BF1437BD465DF8047B70470000A2
:103C500080B487B000AF7860396000237B6154E1A5
:103C60003B681A6801217B6901FA03F31340FB608A
:103C7000FB68002B00F046813B685B6803F00303A0
:103C8000012B05D03B685B6803F00303022B30D1A6
:103C90007B689B683B617B695B00032202FA03F34C
:103CA000DB433A6913403B613B68DA687B695B0040
:103CB00002FA03F33A6913433B617B683A699A60FD
:103CC0007B685B683B6101227B6902FA03F3DB439B
:103CD0003A6913403B613B685B681B0903F00102D2
:103CE0007B6902FA03F33A6913433B617B683A69E3
:103CF0005A603B685B6803F00303032B17D07B68B3
:103D0000DB683B617B695B00032202FA03F3DB4360
:103D10003A6913403B613B689A687B695B0002FA31
:103D200003F33A6913433B617B683A69DA603B68A5
:103D30005B6803F00303022B23D17B69DA087B68FD
:103D4000083253F822303B617B6903F007039B0084
:103D50000F2202FA03F3DB433A6913403B613B68ED
:103D60001A697B6903F007039B0002FA03F33A69BF
:103D700013433B617B69DA087B680832396943F891
:103D800022107B681B683B617B695B00032202FA9F
:103D900003F3DB433A6913403B613B685B6803F024
:103DA00003027B695B0002FA03F33A6913433B6148
:103DB0007B683A691A603B685B6803F44033002B08
:103DC00000F0A080584B1B6E574A43F00103136666
:103DD000554B1B6E03F00103BB60BB68534A7B6904
:103DE0009B08023352F823303B617B6903F00303E5
:103DF0009B000F2202FA03F3DB433A6913403B6155
:103E00007B68B3F1904F19D07B68494A934213D035
:103E10007B68484A93420DD07B68474A934207D05B
:103E20007B68464A934201D1042308E0072306E059
:103E3000032304E0022302E0012300E000237A6967
:103E400002F00302920093403A6913433B61374901
:103E50007B699B0802333A6941F82320384B9B6801
:103E60003B61FB68DB433A6913403B613B685B683D
:103E700003F48013002B03D03A69FB6813433B61C2
:103E80002F4A3B6993602E4BDB683B61FB68DB4349
:103E90003A6913403B613B685B6803F40013002BF5
:103EA00003D03A69FB6813433B61254A3B69D36001
:103EB000234B5B683B61FB68DB433A6913403B6122
:103EC0003B685B6803F40033002B03D03A69FB685E
:103ED00013433B611A4A3B695360194B1B683B61B2
:103EE000FB68DB433A6913403B613B685B6803F462
:103EF0008033002B03D03A69FB6813433B61104ABF
:103F00003B6913607B6901337B613B681A687B699D
:103F100022FA03F3002B7FF4A3AE00BF00BF1C37CF
:103F2000BD465DF8047B7047001002400000014070
:103F30000004004800080048000C00480010004839
:103F40000004014080B485B000AF78600B467B80F0
:103F50007B681A697B881340002B02D00123FB7316
:103F600001E00023FB73FB7B18461437BD465DF868
:103F7000047B704780B483B000AF78600B467B80D1
:103F800013467B707B78002B03D07A887B689A611C
:103F900002E07A887B689A6200BF0C37BD465DF804
:103FA000047B704780B485B000AF78600B467B809F
:103FB0007B685B69FB607A88FB6813401A04FB68C6
:103FC000D9437B880B401A437B689A6100BF143742
:103FD000BD465DF8047B704780B582B000AF786065
:103FE0007B68002B01D1012381E07B6893F841308D
:103FF000DBB2002B06D17B68002283F84020786872
:10400000FDF796F97B68242283F841207B681B68C2
:104010001A687B681B6822F001021A607B685A6884
:104020007B681B6822F070621A617B681B689A6863
:104030007B681B6822F400429A607B68DB68012B76
:1040400007D17B689A687B681B6842F400429A60DB
:1040500006E07B689A687B681B6842F404429A60B9
:104060007B68DB68022B04D17B681B684FF400621D
:104070005A607B681B685B687A68126843F000735B
:1040800043F4004353607B681B68DA687B681B68F5
:1040900022F40042DA607B681A697B685B6942EA55
:1040A00003017B689B691A027B681B680A43DA601C
:1040B0007B68D9697B681A6A7B681B680A431A6047
:1040C0007B681B681A687B681B6842F001021A60F3
:1040D0007B6800225A647B68202283F841207B6839
:1040E00000221A637B68002283F8422000231846CE
:1040F0000837BD4680BD000080B588B002AFF860CB
:10410000084611461A4603467B810B463B811346FF
:10411000FB80FB6893F84130DBB2202B40F0F98044
:104120003B6A002B02D0BB8C002B05D1FB684FF4FF
:1041300000725A640123EDE0FB6893F84030012BD4
:1041400001D10223E6E0FB68012283F84020FDF75D
:1041500033FB78617B690093192301224FF40041FE
:10416000F86800F055F90346002B01D00123D1E097
:10417000FB68212283F84120FB68402283F842201B
:10418000FB6800225A64FB683A6A5A62FB68BA8C80
:104190005A85FB6800225A63F8883A8979897B69D5
:1041A0000193BB6A00930346F86800F0B9F8034630
:1041B000002B05D0FB68002283F840200123A9E0F2
:1041C000FB685B8D9BB2FF2B0ED9FB68FF221A8523
:1041D000FB681B8DDAB27989002300934FF080735E
:1041E000F86800F0BDFA0FE0FB685B8D9AB2FB68DF
:1041F0001A85FB681B8DDAB27989002300934FF092
:104200000073F86800F0ACFA7A69B96AF86800F0EF
:104210003FF90346002B01D001237BE0FB685B6A7A
:104220001A78FB681B689A62FB685B6A5A1CFB6819
:104230005A62FB685B8D9BB2013B9AB2FB685A8560
:10424000FB681B8D013B9AB2FB681A85FB685B8D8E
:104250009BB2002B34D0FB681B8D002B30D17B69C7
:104260000093BB6A00228021F86800F0D1F8034671
:10427000002B01D001234DE0FB685B8D9BB2FF2B2F
:104280000ED9FB68FF221A85FB681B8DDAB279898B
:10429000002300934FF08073F86800F061FA0FE09C
:1042A000FB685B8D9AB2FB681A85FB681B8DDAB2DE
:1042B0007989002300934FF00073F86800F050FAFA
:1042C000FB685B8D9BB2002B9ED17A69B96AF86856
:1042D00000F01EF90346002B01D001231AE0FB6811
:1042E0001B682022DA61FB681B685968FB681A6842
:1042F0000A4B0B405360FB68202283F84120FB6887
:10430000002283F84220FB68002283F8402000232B
:1043100000E0022318461837BD4680BD00E800FEC5
:1043200080B586B002AFF860084611461A460346CB
:104330007B810B463B811346FB80FB88DAB279898F
:10434000204B00934FF08073F86800F009FAFA6987
:10435000B969F86800F09CF80346002B01D00123EE
:104360002CE0FB88012B05D13B89DAB2FB681B6886
:104370009A6215E03B891B0A9BB2DAB2FB681B68A4
:104380009A62FA69B969F86800F082F80346002B6E
:1043900001D0012312E03B89DAB2FB681B689A6204
:1043A000FB690093BB6900228021F86800F030F8B7
:1043B0000346002B01D0012300E0002318461037EC
:1043C000BD4680BD0020008080B483B000AF78601F
:1043D0007B681B689B6903F00203022B03D17B6897
:1043E0001B6800229A627B681B689B6903F00103CB
:1043F000012B07D07B681B689A697B681B6842F0B9
:1044000001029A6100BF0C37BD465DF8047B70471E
:1044100080B584B000AFF860B9603B601346FB71B3
:1044200022E03B68B3F1FF3F1ED0FDF7C5F902461D
:10443000BB69D31A3A689A4202D33B68002B13D166
:10444000FB685B6C43F02002FB685A64FB68202227
:1044500083F84120FB68002283F84220FB68002299
:1044600083F8402001230FE0FB681B689A69BB6852
:104470001340BA689A420CBF01230023DBB21A46EC
:10448000FB799A42CDD0002318461037BD4680BD37
:1044900080B584B000AFF860B9607A602CE07A68CB
:1044A000B968F86800F070F80346002B01D00123CA
:1044B0002AE0BB68B3F1FF3F1ED0FDF77DF902464D
:1044C0007B68D31ABA689A4202D3BB68002B13D117
:1044D000FB685B6C43F02002FB685A64FB68202297
:1044E00083F84120FB68002283F84220FB68002209
:1044F00083F84020012307E0FB681B689B6903F0F9
:104500000203022BCBD1002318461037BD4680BDD5
:1045100080B584B000AFF860B9607A6028E07A684E
:10452000B968F86800F030F80346002B01D0012389
:1045300026E0FDF741F902467B68D31ABA689A4231
:1045400002D3BB68002B13D1FB685B6C43F02002E5
:10455000FB685A64FB68202283F84120FB68002234
:1045600083F84220FB68002283F84020012307E003
:10457000FB681B689B6903F02003202BCFD100232D
:1045800018461037BD4680BD80B58AB000AFF860D0
:10459000B9607A60002387F82730FB681B689B6945
:1045A000BB6100233B627B68FB61BB6903F01003C6
:1045B000002B75D0FB681B681022DA6156E0BB68DF
:1045C000B3F1FF3F52D0FDF7F7F80246FB69D31A6B
:1045D000BA689A4202D3BB68002B47D1FB681B68BC
:1045E0005B6803F480437B61FB6893F84230FB74A3
:1045F000FB681B689B6903F40043B3F5004F2ED1A1
:104600007B69B3F5804F2AD0FB7C202B27D0FB6839
:104610001B685A68FB681B6842F480425A60FDF7C9
:10462000CBF8F8611BE0FDF7C7F80246FB69D31A27
:10463000192B14D9FB685B6C43F02002FB685A64A9
:10464000FB68202283F84120FB68002283F8422087
:10465000FB68002283F84020012387F82730FB689D
:104660001B689B6903F02003202BDCD1FB681B68CF
:104670009B6903F02003202B03D097F82730002BF1
:104680009DD097F82730002B03D1FB681B682022B0
:10469000DA613B6A43F004033B62012387F8273069
:1046A000FB681B689B69BB61BB6903F48073002BCB
:1046B0000BD03B6A43F001033B62FB681B684FF47D
:1046C0008072DA61012387F82730BB6903F48063C5
:1046D000002B0BD03B6A43F008033B62FB681B686E
:1046E0004FF48062DA61012387F82730BB6903F455
:1046F0000073002B0BD03B6A43F002033B62FB6864
:104700001B684FF40072DA61012387F8273097F8AD
:104710002730002B1CD0F868FFF756FEFB681B689B
:104720005968FB681A680D4B0B405360FB685A6C64
:104730003B6A1A43FB685A64FB68202283F84120D5
:10474000FB68002283F84220FB68002283F84020A7
:1047500097F8273018462837BD4680BD00E800FE90
:1047600080B487B000AFF8607B600B467B81134656
:104770007B727B89C3F309027B7A1B0403F47F03FA
:104780001A437B681A433B6A134323F000437B615F
:10479000FB681B685A683B6A5B0D03F48061084B39
:1047A0000B43DB4302EA0301FB681B687A690A4397
:1047B0005A6000BF1C37BD465DF8047B704700BFE0
:1047C000FF63FF0380B483B000AF786039607B681B
:1047D00093F84130DBB2202B38D17B6893F840301E
:1047E000012B01D1022332E07B68012283F84020B3
:1047F0007B68242283F841207B681B681A687B68E9
:104800001B6822F001021A607B681B681A687B68CB
:104810001B6822F480521A607B681B6819687B68E9
:104820001B683A680A431A607B681B681A687B68D1
:104830001B6842F001021A607B68202283F8412045
:104840007B68002283F84020002300E00223184602
:104850000C37BD465DF8047B704780B485B000AF6F
:10486000786039607B6893F84130DBB2202B39D116
:104870007B6893F84030012B01D1022333E07B6841
:10488000012283F840207B68242283F841207B6842
:104890001B681A687B681B6822F001021A607B683B
:1048A0001B681B68FB60FB6823F47063FB603B685C
:1048B0001B02FA681343FB607B681B68FA681A6086
:1048C0007B681B681A687B681B6842F001021A60EB
:1048D0007B68202283F841207B68002283F84020F7
:1048E000002300E0022318461437BD465DF8047B20
:1048F0007047000080B400AF044B1B6803F4C06332
:104900001846BD465DF8047B704700BF007000404C
:1049100080B588B000AF78607B68002B02D101239E
:1049200000F002BC964B9B6803F00C03BB61944BF8
:10493000DB6803F003037B617B681B6803F01003F3
:10494000002B00F0E480BB69002B07D0BB690C2B67
:1049500040F08B807B69012B40F08780884B1B687F
:1049600003F00203002B05D07B689B69002B01D16B
:104970000123D9E37B681A6A814B1B6803F00803A3
:10498000002B04D07E4B1B6803F0F00305E07C4B4A
:10499000D3F894301B0903F0F003934223D27B68D1
:1049A0001B6A184600F08CFD0346002B01D0012342
:1049B000BAE3734B1B68724A43F008031360704BF1
:1049C0001B6823F0F0027B681B6A6D4913430B6080
:1049D0006B4B5B6823F47F427B68DB691B02684991
:1049E00013434B6025E0664B1B68654A43F00803A0
:1049F0001360634B1B6823F0F0027B681B6A6049FD
:104A000013430B605E4B5B6823F47F427B68DB697A
:104A10001B025B4913434B60BB69002B09D17B68C8
:104A20001B6A184600F04CFD0346002B01D0012301
:104A30007AE300F081FC0246514B9B681B0903F0AE
:104A40000F035049CB5C03F01F0322FA03F34E4AD5
:104A500013604E4B1B681846FCF75EFE0346FB7363
:104A6000FB7B002B52D0FB7B5EE37B689B69002BBA
:104A700032D0434B1B68424A43F001031360FCF7FA
:104A80009BFE386108E0FCF797FE02463B69D31AAB
:104A9000022B01D9032347E3394B1B6803F00203C0
:104AA000002BF0D0364B1B68354A43F008031360E7
:104AB000334B1B6823F0F0027B681B6A30491343B9
:104AC0000B602F4B5B6823F47F427B68DB691B0222
:104AD0002B4913434B601AE0294B1B68284A23F0EB
:104AE00001031360FCF768FE386108E0FCF764FE20
:104AF00002463B69D31A022B01D9032314E3204B4E
:104B00001B6803F00203002BF0D100E000BF7B68BC
:104B10001B6803F00103002B73D0BB69082B05D081
:104B2000BB690C2B0ED17B69032B0BD1144B1B687B
:104B300003F40033002B63D07B685B68002B5FD1EC
:104B40000123F1E27B685B68B3F5803F06D10C4B33
:104B50001B680B4A43F48033136025E07B685B6875
:104B6000B3F5A02F14D1064B1B68054A43F48023EC
:104B70001360034B1B68024A43F48033136013E055
:104B8000001002400828010804000020080000204E
:104B9000A04B1B689F4A23F4803313609D4B1B6816
:104BA0009C4A23F4802313607B685B68002B13D03E
:104BB000FCF702FE386108E0FCF7FEFD02463B69A7
:104BC000D31A642B01D90323AEE2924B1B6803F482
:104BD0000033002BF0D014E0FCF7EEFD386108E064
:104BE000FCF7EAFD02463B69D31A642B01D9032383
:104BF0009AE2884B1B6803F40033002BF0D100E0ED
:104C000000BF7B681B6803F00203002B60D0BB6908
:104C1000042B05D0BB690C2B19D17B69022B16D153
:104C20007C4B1B6803F48063002B05D07B68DB683A
:104C3000002B01D1012377E2764B5B6823F0F85219
:104C40007B681B691B06734913434B6040E07B681C
:104C5000DB68002B23D06F4B1B686E4A43F48073D4
:104C60001360FCF7A9FD386108E0FCF7A5FD0246DA
:104C70003B69D31A022B01D9032355E2654B1B680C
:104C800003F48063002BF0D0624B5B6823F0F85292
:104C90007B681B691B065F4913434B6018E05D4B43
:104CA0001B685C4A23F480731360FCF785FD386150
:104CB00008E0FCF781FD02463B69D31A022B01D9BB
:104CC000032331E2534B1B6803F48063002BF0D1C4
:104CD0007B681B6803F00803002B3CD07B685B6992
:104CE000002B1CD04B4BD3F894304A4A43F00103BD
:104CF000C2F89430FCF760FD386108E0FCF75CFD19
:104D000002463B69D31A022B01D903230CE2414B23
:104D1000D3F8943003F00203002BEFD01BE03D4B9F
:104D2000D3F894303B4A23F00103C2F89430FCF7E7
:104D300043FD386108E0FCF73FFD02463B69D31AAA
:104D4000022B01D90323EFE1324BD3F8943003F067
:104D50000203002BEFD17B681B6803F00403002BD8
:104D600000F0A6800023FB772A4B9B6D03F0805355
:104D7000002B0DD1274B9B6D264A43F08053936542
:104D8000244B9B6D03F08053BB60BB680123FB7712
:104D9000214B1B6803F48073002B18D11E4B1B683A
:104DA0001D4A43F480731360FCF706FD386108E088
:104DB000FCF702FD02463B69D31A022B01D90323FB
:104DC000B2E1154B1B6803F48073002BF0D07B68B5
:104DD0009B68012B08D10F4BD3F890300D4A43F05C
:104DE0000103C2F8903029E07B689B68052B15D140
:104DF000084BD3F89030074A43F00403C2F89030D0
:104E0000044BD3F89030034A43F00103C2F89030CA
:104E100014E000BF00100240007000409A4BD3F82D
:104E20009030994A23F00103C2F89030964BD3F8A2
:104E30009030954A23F00403C2F890307B689B6859
:104E4000002B16D0FCF7B8FC38610AE0FCF7B4FC84
:104E500002463B69D31A41F28832934201D90323B7
:104E600062E1894BD3F8903003F00203002BEDD0C0
:104E700015E0FCF7A1FC38610AE0FCF79DFC024656
:104E80003B69D31A41F28832934201D903234BE1A3
:104E90007D4BD3F8903003F00203002BEDD1FB7F64
:104EA000012B05D1784B9B6D774A23F08053936596
:104EB0007B681B6803F02003002B3CD07B685B6A97
:104EC000002B1CD0704BD3F898306F4A43F001038D
:104ED000C2F89830FCF770FC386108E0FCF76CFC15
:104EE00002463B69D31A022B01D903231CE1664B0E
:104EF000D3F8983003F00203002BEFD01BE0624B95
:104F0000D3F89830604A23F00103C2F89830FCF7D8
:104F100053FC386108E0FCF74FFC02463B69D31AAA
:104F2000022B01D90323FFE0574BD3F8983003F04D
:104F30000203002BEFD17B689B6A002B00F0F3800B
:104F40007B689B6A022B40F0C9804F4BDB687B611A
:104F50007B6903F003027B68DB6A9A422CD17B6990
:104F600003F070027B681B6B013B1B019A4223D14B
:104F70007B6903F4FE427B685B6B1B029A421BD188
:104F80007B6903F078427B689B6BDB069A4213D106
:104F90007B6903F4C0027B68DB6B5B08013B5B054C
:104FA0009A4209D17B6903F0C0627B681B6C5B0885
:104FB000013B5B069A426BD0BB690C2B62D0324B33
:104FC0001B6803F08063002B01D00123ACE02E4B63
:104FD0001B682D4A23F080731360FCF7EDFB3861EA
:104FE00008E0FCF7E9FB02463B69D31A022B01D922
:104FF000032399E0244B1B6803F00073002BF0D1CE
:10500000214BDA68214B13407A68D16A7A68126BB7
:10501000013A120111437A68526B120211437A6805
:10502000D26B5208013A520511437A68126C520849
:10503000013A520611437A68926BD2060A4312492A
:105040001343CB60104B1B680F4A43F0807313600F
:105050000D4BDB680C4A43F08073D360FCF7ACFB6C
:10506000386108E0FCF7A8FB02463B69D31A022B23
:1050700001D9032358E0044B1B6803F00073002B95
:10508000F0D050E001234FE0001002408C809D01E1
:10509000274B1B6803F00073002B44D1244B1B6883
:1050A000234A43F080731360214BDB68204A43F0AE
:1050B0008073D360FCF780FB386108E0FCF77CFB71
:1050C00002463B69D31A022B01D903232CE0184B6B
:1050D0001B6803F00073002BF0D024E0BB690C2B9D
:1050E0001FD0134B1B68124A23F080731360FCF728
:1050F00063FB386108E0FCF75FFB02463B69D31AAB
:10510000022B01D903230FE0094B1B6803F0007346
:10511000002BF0D1064BDA680549064B1340CB60F3
:1051200001E0012300E0002318462037BD4680BD82
:1051300000100240FCFFEEFE80B584B000AF786046
:1051400039607B68002B01D10123E7E0754B1B68B8
:1051500003F007033A689A4210D9724B1B6823F098
:10516000070270493B6813430B606E4B1B6803F0EA
:1051700007033A689A4201D00123CFE07B681B689D
:1051800003F00203002B10D07B689A68664B9B6883
:1051900003F0F0039A4208D9634B9B6823F0F002B6
:1051A0007B689B68604913438B607B681B6803F0D6
:1051B0000103002B4CD07B685B68032B07D15A4B53
:1051C0001B6803F00073002B21D10123A6E07B684C
:1051D0005B68022B07D1544B1B6803F40033002B90
:1051E00015D101239AE07B685B68002B07D14E4BF9
:1051F0001B6803F00203002B09D101238EE04A4B08
:105200001B6803F48063002B01D1012386E0464B29
:105210009B6823F003027B685B68434913438B6000
:10522000FCF7CAFAF8600AE0FCF7C6FA0246FB6827
:10523000D31A41F28832934201D903236EE03A4BEC
:105240009B6803F00C027B685B689B009A42EBD181
:105250007B681B6803F00203002B10D07B689A6800
:10526000314B9B6803F0F0039A4208D22E4B9B68A7
:1052700023F0F0027B689B682B4913438B60294B1A
:105280001B6803F007033A689A4210D2254B1B684B
:1052900023F0070223493B6813430B60214B1B6833
:1052A00003F007033A689A4201D0012336E07B6895
:1052B0001B6803F00403002B08D01B4B9B6823F4EE
:1052C000E0627B68DB68184913438B607B681B686E
:1052D00003F00803002B09D0134B9B6823F46052A2
:1052E0007B681B69DB00104913438B6000F024F8D6
:1052F00002460D4B9B681B0903F00F030B49CB5C67
:1053000003F01F0322FA03F3094A1360094B1B68D9
:105310001846FCF701FA0346FB72FB7A1846103771
:10532000BD4680BD00200240001002400828010850
:10533000040000200800002080B489B000AF0023E2
:10534000FB610023BB613E4B9B6803F00C033B6198
:105350003B4BDB6803F00303FB603B69002B05D08C
:105360003B690C2B21D1FB68012B1ED1344B1B68F0
:1053700003F00803002B07D1314BD3F894301B0AFC
:1053800003F00F03FB6105E02D4B1B681B0903F0C5
:105390000F03FB612B4AFB6952F82330FB613B6929
:1053A000002B0DD1FB69BB610AE03B69042B02D1E4
:1053B000254BBB6104E03B69082B01D1234BBB614A
:1053C0003B690C2B34D11E4BDB6803F00303BB603D
:1053D000BB68022B03D0BB68032B03D005E01A4B3C
:1053E0007B6105E0194B7B6102E0FB697B6100BFDB
:1053F000134BDB681B0903F0070301337B60104B81
:10540000DB681B0A03F07F037A6903FB02F27B6807
:10541000B2FBF3F37B610A4BDB685B0E03F0030323
:1054200001335B003B607A693B68B2FBF3F3BB611D
:10543000BB6918462437BD465DF8047B704700BF42
:1054400000100240202801080024F400001BB700CF
:1054500080B400AF034B1B681846BD465DF8047B63
:10546000704700BF0400002080B500AFFFF7F0FFD9
:105470000246064B9B681B0A03F007030449CB5CFA
:1054800003F01F0322FA03F3184680BD0010024008
:105490001828010880B500AFFFF7DAFF0246064B77
:1054A0009B68DB0A03F007030449CB5C03F01F038E
:1054B00022FA03F3184680BD0010024018280108A4
:1054C00080B586B000AF786000233B612A4B9B6DAE
:1054D00003F08053002B03D0FFF70CFA786114E03F
:1054E000254B9B6D244A43F080539365224B9B6D63
:1054F00003F08053FB60FB68FFF7FCF978611E4BFB
:105500009B6D1D4A23F0805393657B69B3F5007F43
:105510000BD17B68802B19D97B68A02B02D9022381
:105520003B6113E001233B6110E07B68802B02D9D3
:1055300003233B610AE07B68802B02D102233B619D
:1055400004E07B68702B01D101233B610B4B1B688E
:1055500023F0070209493B6913430B60074B1B68A3
:1055600003F007033A699A4201D0012300E00023C7
:1055700018461837BD4680BD00100240002002408A
:1055800080B586B000AF78600023FB740023BB7445
:105590007B681B6803F40063002B31D07B685B6C75
:1055A000B3F5400F1AD0B3F5400F14D8002B09D033
:1055B000B3F5000F0FD15D4BDB685C4A43F48033D9
:1055C000D3600CE07B6804330021184600F0F0F94A
:1055D0000346FB7403E00123FB7400E000BFFB7C87
:1055E000002B0BD1514BD3F8883023F440027B6859
:1055F0005B6C4E491343C1F8883001E0FB7CBB74FF
:105600007B681B6803F40033002B00F09E800023AE
:105610007B74464B9B6D03F08053002B01D101231B
:1056200000E00023002B0DD0404B9B6D3F4A43F020
:10563000805393653D4B9B6D03F08053BB60BB680B
:1056400001237B743A4B1B68394A43F4807313601F
:10565000FCF7B2F8F86009E0FCF7AEF80246FB6828
:10566000D31A022B02D90323FB7405E0304B1B68CD
:1056700003F48073002BEFD0FB7C002B5AD12B4B13
:10568000D3F8903003F440737B617B69002B1ED00C
:105690007B689B6D7A699A4219D0244BD3F890307D
:1056A00023F440737B61214BD3F890301F4A43F4BD
:1056B0008033C2F890301D4BD3F890301B4A23F44E
:1056C0008033C2F89030194A7B69C2F890307B6908
:1056D00003F00103002B16D0FCF76EF8F8600BE026
:1056E000FCF76AF80246FB68D31A41F2883293420B
:1056F00002D90323FB7406E00C4BD3F8903003F07F
:105700000203002BECD0FB7C002B0BD1074BD3F812
:10571000903023F440727B689B6D04491343C1F8B9
:10572000903009E0FB7CBB7406E000BF0010024033
:1057300000700040FB7CBB747B7C012B05D19B4B34
:105740009B6D9A4A23F0805393657B681B6803F036
:105750000103002B0AD0954BD3F8883023F00302C5
:105760007B681B6A91491343C1F888307B681B68CA
:1057700003F00203002B0AD08C4BD3F8883023F0BF
:105780000C027B685B6A89491343C1F888307B68E7
:105790001B6803F00403002B0AD0844BD3F8883035
:1057A00023F030027B689B6A80491343C1F888303C
:1057B0007B681B6803F02003002B0AD07B4BD3F8D7
:1057C000883023F440627B68DB6A78491343C1F870
:1057D00088307B681B6803F40073002B0AD0734B7E
:1057E000D3F8883023F440227B68DB6B6F49134386
:1057F000C1F888307B681B6803F48063002B0AD0F3
:105800006A4BD3F8883023F440127B681B6C6749DD
:105810001343C1F888307B681B6803F04003002BFA
:105820000AD0624BD3F8883023F440527B681B6B5C
:105830005E491343C1F888307B681B6803F080031E
:10584000002B0AD0594BD3F8883023F440427B68B0
:105850005B6B56491343C1F888307B681B6803F4BF
:105860008073002B0AD0514BD3F8883023F4403298
:105870007B689B6B4D491343C1F888307B681B687C
:1058800003F40023002B28D0484BD3F8883023F0B2
:1058900040627B689B6C45491343C1F888307B6844
:1058A0009B6CB3F1006F06D1404BDB683F4A43F479
:1058B0008013D36011E07B689B6CB3F1806F0CD1D7
:1058C0007B6804330121184600F072F80346FB742C
:1058D000FB7C002B01D0FB7CBB747B681B6803F452
:1058E0008023002B28D0314BD3F8883023F040623E
:1058F0007B68DB6C2D491343C1F888307B68DB6C17
:10590000B3F1006F06D1294BDB68284A43F48013BA
:10591000D36011E07B68DB6CB3F1806F0CD17B68E6
:1059200004330121184600F043F80346FB74FB7C66
:10593000002B01D0FB7CBB747B681B6803F48043A5
:10594000002B1CD0194BD3F8883023F040527B68D1
:105950001B6D16491343C1F888307B681B6DB3F18A
:10596000805F0CD17B6804330221184600F020F8D8
:105970000346FB74FB7C002B01D0FB7CBB747B6873
:105980001B6803F40043002B0AD0084BD3F888307F
:1059900023F080427B685B6D04491343C1F8883073
:1059A000BB7C18461837BD4680BD00BF00100240C2
:1059B00080B584B000AF786039600023FB73744B0E
:1059C000DB6803F00303002B18D0714BDB6803F096
:1059D00003027B681B689A420DD17B681B68002B11
:1059E00009D06B4BDB681B0903F007035A1C7B686B
:1059F0005B689A4247D00123FB7344E07B681B68D5
:105A0000032B18D0032B25D8012B02D0022B09D051
:105A100020E05F4B1B6803F00203002B1DD1012324
:105A2000FB731AE05A4B1B6803F48063002B16D1FA
:105A30000123FB7313E0564B1B6803F40033002B68
:105A40000FD1534B1B6803F48023002B09D1012392
:105A5000FB7306E00123FB7304E000BF02E000BF1C
:105A600000E000BFFB7B002B0DD1494BDB6823F02E
:105A700073027B6819687B685B68013B1B010B4301
:105A800043491343CB60FB7B002B7CD1404B1B680D
:105A90003F4A23F080631360FBF78EFEB86009E095
:105AA000FBF78AFE0246BB68D31A022B02D90323F6
:105AB000FB7305E0364B1B6803F00063002BEFD14E
:105AC000FB7B002B5FD13B68002B10D1304B1B6957
:105AD00023F0784323F4FE437A68926811027A68CF
